S00F0000506C616E6574612E7372656350
S11300000C942A000C9447000C9447000C9447006D
S11300100C9447000C9447000C9447000C94470040
S11300200C9447000C9447000C9447000C94570020
S11300300C9447000C9447000C9447000C94470020
S11300400C9447000C9447000C9447000C94470010
S11300500C94470011241FBECFE5D4E0DEBFCDBF12
S113006010E0A0E6B0E0ECE2F2E002C005900D92F0
S1130070A03BB107D9F721E0A0EBB0E001C01D928D
S1130080A430B207E1F70E94BE000C9414010C9452
S1130090000010BC8CE089B982E08BB988E98AB988
S11300A08EE880BD08955D9BFECF8CB908951F92A4
S11300B00F920FB60F9211242F933F934F935F9398
S11300C06F937F938F939F93AF93BF93CF93EF934C
S11300D0FF931092B000CCB1E091B100F0E0EE5487
S11300E0FF4FC0838091B1008F5F8093B100C1380E
S11300F061F08091B100813041F41092B10010920E
S1130100B00087E40E94530003C082E40E945300BD
S1130110C23821F08091B100823528F01092B100EC
S113012081E08093B000FF91EF91CF91BF91AF91A7
S11301309F918F917F916F915F914F913F912F91FB
S11301400F900FBE0F901F9018959698969A089549
S11301508FEF8ABB9FE097BB84BB80EE81BB12BA52
S1130160979A80E88BBB83E485BB0E94A50083E853
S113017085BB0E94A5001BBA15BA08950E94A80069
S113018085E090E00E944900789403E011E00F2E8E
S1130190FFE0FF2EF02D8091B000813009F03FC0C8
S11301A0E3EBF0E0A0E6B0E081918D930E171F071A
S11301B0D9F71092B00033C01BBA15BAF8BA82E06E
S11301C08E1538F4AF9A85B39DEF9E0D892B85BBB0
S11301D029C0AE9A85B38E2985BB24C0ED2FEC0FC0
S11301E0F0E0E05AFF4F80818BBB8C2F80958770A5
S11301F088BBC83010F0C39801C0C39A0E94A50000
S113020082E48A95F1F700C01BBA0E94A500CF5F73
S1130210C03121F7D05FE394D03571F6BCCFE12C27
S10F0220D0E0CACFC0E0DACFF894FFCFE2
S113022C00003E02023E003E1A0E06003E2A220048
S113023C3E2A3E3630003E6A623200701E125E70F8
S113024C003E08083E003E12123E003E32121E00D2
S113025C3E26263C00701E125E70001030242020B6
S113026C243010000000000000000000000000001A
S9030000FC
