S00F0000506C616E6574612E7372656350
S11300000C942A000C9447000C9447000C9447006D
S11300100C9447000C9447000C9447000C94470040
S11300200C9447000C9447000C9447000C94530024
S11300300C9447000C9447000C9447000C94470020
S11300400C9447000C9447000C9447000C94470010
S11300500C94470011241FBECFE5D4E0DEBFCDBF12
S113006010E0A0E6B0E0E0EBF1E002C005900D92F4
S1130070A03BB107D9F720E0A0EBB0E001C01D928E
S1130080A23BB207E1F70E947E000C94D6000C94C8
S1130090000010BC8CE089B982E08BB988E98AB988
S11300A08EE880BD08951F920F920FB60F9211240F
S11300B08F9381E08093B0008CB18093B1008F91D5
S11300C00F900FBE0F901F9018959698969A0895CA
S11300D08FEF8ABB9FE097BB84BB80EE81BB12BAD3
S11300E0979A80E88BBB83E485BB0E94650083E814
S11300F085BB0E9465001BBA15BA08950E9468006A
S113010085E090E00E944900789400E610E00F2E0C
S1130110FFE0EF2EF02D8091B000813009F041C056
S1130120EFEAF0E0829181830E171F07D9F78091DF
S1130130B100F80180831092B00033C01BBA15BA25
S1130140E8BAF2E0FF1538F4AF9A85B39DEF9F0D3E
S1130150892B85BB29C0AE9A85B38F2985BB24C062
S1130160ED2FEC0FF0E0E05AFF4F80818BBB8C2F1A
S11301708095877088BBC83010F0C39801C0C39ABB
S11301800E94650082E48A95F1F700C01BBA0E94C0
S11301906500CF5FC03121F7D05FF394D03571F69D
S11301A0BACFF12CD0E0CACFC0E0DACFF894FFCFB9
S11301B0000000000000002241494936007E111170
S11301C0117E007F01010101007E1111110E000357
S11301D00408107F002241494936007F0814224157
S11301E0007E1111117E000000200000000000209C
S11301F000000000002000000000000000000000DB
S9030000FC
